{
  "contractName": "StorageFactory",
  "abi": [
    {
      "inputs": [
        {
          "internalType": "address",
          "name": "_implementation",
          "type": "address"
        }
      ],
      "stateMutability": "nonpayable",
      "type": "constructor"
    },
    {
      "inputs": [],
      "name": "admin",
      "outputs": [
        {
          "internalType": "address",
          "name": "",
          "type": "address"
        }
      ],
      "stateMutability": "view",
      "type": "function",
      "constant": true
    },
    {
      "inputs": [
        {
          "internalType": "uint256",
          "name": "",
          "type": "uint256"
        }
      ],
      "name": "clonedContracts",
      "outputs": [
        {
          "internalType": "address",
          "name": "",
          "type": "address"
        }
      ],
      "stateMutability": "view",
      "type": "function",
      "constant": true
    },
    {
      "inputs": [],
      "name": "implementation",
      "outputs": [
        {
          "internalType": "address",
          "name": "",
          "type": "address"
        }
      ],
      "stateMutability": "view",
      "type": "function",
      "constant": true
    },
    {
      "inputs": [],
      "name": "createStorage",
      "outputs": [],
      "stateMutability": "nonpayable",
      "type": "function"
    },
    {
      "inputs": [
        {
          "internalType": "uint256",
          "name": "i",
          "type": "uint256"
        }
      ],
      "name": "getAddress",
      "outputs": [
        {
          "internalType": "address",
          "name": "",
          "type": "address"
        }
      ],
      "stateMutability": "view",
      "type": "function",
      "constant": true
    }
  ],
  "bytecode": "0x608060405234801561001057600080fd5b50604051610643380380610643833981810160405281019061003291906100ce565b80600160006101000a81548173ffffffffffffffffffffffffffffffffffffffff021916908373ffffffffffffffffffffffffffffffffffffffff160217905550336000806101000a81548173ffffffffffffffffffffffffffffffffffffffff021916908373ffffffffffffffffffffffffffffffffffffffff16021790555050610140565b6000815190506100c881610129565b92915050565b6000602082840312156100e057600080fd5b60006100ee848285016100b9565b91505092915050565b600061010282610109565b9050919050565b600073ffffffffffffffffffffffffffffffffffffffff82169050919050565b610132816100f7565b811461013d57600080fd5b50565b6104f48061014f6000396000f3fe608060405234801561001057600080fd5b50600436106100575760003560e01c80635c60da1b1461005c578063b93f9b0a1461007a578063f851a440146100aa578063fb82480f146100c8578063fb971d01146100f8575b600080fd5b610064610102565b60405161007191906103f6565b60405180910390f35b610094600480360381019061008f919061039b565b610128565b6040516100a191906103f6565b60405180910390f35b6100b2610196565b6040516100bf91906103f6565b60405180910390f35b6100e260048036038101906100dd919061039b565b6101ba565b6040516100ef91906103f6565b60405180910390f35b6101006101f9565b005b600160009054906101000a900473ffffffffffffffffffffffffffffffffffffffff1681565b600060028281548110610164577f4e487b7100000000000000000000000000000000000000000000000000000000600052603260045260246000fd5b9060005260206000200160009054906101000a900473ffffffffffffffffffffffffffffffffffffffff169050919050565b60008054906101000a900473ffffffffffffffffffffffffffffffffffffffff1681565b600281815481106101ca57600080fd5b906000526020600020016000915054906101000a900473ffffffffffffffffffffffffffffffffffffffff1681565b3373ffffffffffffffffffffffffffffffffffffffff1660008054906101000a900473ffffffffffffffffffffffffffffffffffffffff1673ffffffffffffffffffffffffffffffffffffffff1614610287576040517f08c379a000000000000000000000000000000000000000000000000000000000815260040161027e90610411565b60405180910390fd5b60006102b4600160009054906101000a900473ffffffffffffffffffffffffffffffffffffffff1661031c565b90506002819080600181540180825580915050600190039060005260206000200160009091909190916101000a81548173ffffffffffffffffffffffffffffffffffffffff021916908373ffffffffffffffffffffffffffffffffffffffff16021790555050565b6000808260601b90506040517f3d602d80600a3d3981f3363d3d373d3d3d363d7300000000000000000000000081528160148201527f5af43d82803e903d91602b57fd5bf3000000000000000000000000000000000060288201526037816000f092505050919050565b600081359050610395816104a7565b92915050565b6000602082840312156103ad57600080fd5b60006103bb84828501610386565b91505092915050565b6103cd81610442565b82525050565b60006103e0601d83610431565b91506103eb8261047e565b602082019050919050565b600060208201905061040b60008301846103c4565b92915050565b6000602082019050818103600083015261042a816103d3565b9050919050565b600082825260208201905092915050565b600061044d82610454565b9050919050565b600073ffffffffffffffffffffffffffffffffffffffff82169050919050565b6000819050919050565b7f4f6e6c792061646d696e2063616e20636c6f6e6520636f6e7472616374000000600082015250565b6104b081610474565b81146104bb57600080fd5b5056fea2646970667358221220e4c2e05382ca32ece461b0e21f732e0e1e94c3e0fa3c08a06ad12a34a74e009164736f6c63430008030033",
  "immutableReferences": {},
  "source": "pragma solidity ^0.8.3;\r\n\r\nimport \"./Storage.sol\";\r\nimport \"./CloneFactory.sol\";\r\n\r\n\r\ncontract StorageFactory is CloneFactory {\r\n    address public admin;\r\n    address public implementation;\r\n    address[] public clonedContracts;\r\n    \r\n    // function storageFactory(address _implementation) public {\r\n    //     implementation = _implementation;\r\n    //     admin = msg.sender;\r\n    // }\r\n\r\n    constructor(address _implementation) {\r\n        implementation = _implementation;\r\n        admin = msg.sender;\r\n    }\r\n\r\n    function createStorage() public {\r\n        require(admin == msg.sender, \"Only admin can clone contract\");\r\n        address clone = createClone(implementation);\r\n\r\n        clonedContracts.push(clone);    \r\n    }\r\n\r\n    function getAddress(uint i) external view returns (address) {\r\n        return clonedContracts[i];\r\n    }\r\n}",
  "sourcePath": "C:/Solidity/EIP1167/first-EIP1167/contracts/StorageFactory.sol",
  "compiler": {
    "name": "solc",
    "version": "0.8.3+commit.8d00100c.Emscripten.clang"
  },
  "schemaVersion": "3.4.1",
  "updatedAt": "2021-05-28T14:23:49.223Z",
  "networkType": "ethereum",
  "devdoc": {
    "kind": "dev",
    "methods": {},
    "version": 1
  },
  "userdoc": {
    "kind": "user",
    "methods": {},
    "version": 1
  }
}