{
  "contractName": "Storage",
  "abi": [
    {
      "constant": true,
      "inputs": [],
      "name": "data",
      "outputs": [
        {
          "name": "",
          "type": "string"
        }
      ],
      "payable": false,
      "stateMutability": "view",
      "type": "function"
    },
    {
      "constant": false,
      "inputs": [
        {
          "name": "_data",
          "type": "string"
        }
      ],
      "name": "setData",
      "outputs": [],
      "payable": false,
      "stateMutability": "nonpayable",
      "type": "function"
    }
  ],
  "bytecode": "0x608060405234801561001057600080fd5b506102a1806100206000396000f30060806040526004361061004c576000357c0100000000000000000000000000000000000000000000000000000000900463ffffffff16806347064d6a1461005157806373d4a13a1461008c575b600080fd5b34801561005d57600080fd5b5061008a60048036038101908080359060200190820180359060200191909192939192939050505061011c565b005b34801561009857600080fd5b506100a1610132565b6040518080602001828103825283818151815260200191508051906020019080838360005b838110156100e15780820151818401526020810190506100c6565b50505050905090810190601f16801561010e5780820380516001836020036101000a031916815260200191505b509250505060405180910390f35b81816000919061012d9291906101d0565b505050565b60008054600181600116156101000203166002900480601f0160208091040260200160405190810160405280929190818152602001828054600181600116156101000203166002900480156101c85780601f1061019d576101008083540402835291602001916101c8565b820191906000526020600020905b8154815290600101906020018083116101ab57829003601f168201915b505050505081565b828054600181600116156101000203166002900490600052602060002090601f016020900481019282601f1061021157803560ff191683800117855561023f565b8280016001018555821561023f579182015b8281111561023e578235825591602001919060010190610223565b5b50905061024c9190610250565b5090565b61027291905b8082111561026e576000816000905550600101610256565b5090565b905600a165627a7a723058207370cc02aa72695e9ed9e3248212927d6901934cd5ce051c95a288ee3a7b652c0029",
  "source": "pragma solidity ^0.4.23;\r\n\r\n\r\ncontract Storage {\r\n    string public data;\r\n\r\n    function setData(string _data) external {\r\n        data = _data;\r\n    }    \r\n}",
  "sourcePath": "C:\\Solidity\\EIP1167\\first-EIP1167\\contracts\\Storage.sol",
  "compiler": {
    "name": "solc",
    "version": "0.4.23+commit.124ca40d.Emscripten.clang"
  },
  "schemaVersion": "3.4.1",
  "updatedAt": "2021-05-27T21:25:49.030Z",
  "devdoc": {
    "methods": {}
  },
  "userdoc": {
    "methods": {}
  }
}