{
  "contractName": "Storage",
  "abi": [
    {
      "inputs": [],
      "name": "data",
      "outputs": [
        {
          "internalType": "string",
          "name": "",
          "type": "string"
        }
      ],
      "stateMutability": "view",
      "type": "function",
      "constant": true
    },
    {
      "inputs": [
        {
          "internalType": "string",
          "name": "_data",
          "type": "string"
        }
      ],
      "name": "setData",
      "outputs": [],
      "stateMutability": "nonpayable",
      "type": "function"
    }
  ],
  "bytecode": "0x608060405234801561001057600080fd5b5061039d806100206000396000f3fe608060405234801561001057600080fd5b50600436106100365760003560e01c806347064d6a1461003b57806373d4a13a14610057575b600080fd5b61005560048036038101906100509190610206565b610075565b005b61005f61008b565b60405161006c9190610284565b60405180910390f35b818160009190610086929190610119565b505050565b60008054610098906102f5565b80601f01602080910402602001604051908101604052809291908181526020018280546100c4906102f5565b80156101115780601f106100e657610100808354040283529160200191610111565b820191906000526020600020905b8154815290600101906020018083116100f457829003601f168201915b505050505081565b828054610125906102f5565b90600052602060002090601f016020900481019282610147576000855561018e565b82601f1061016057803560ff191683800117855561018e565b8280016001018555821561018e579182015b8281111561018d578235825591602001919060010190610172565b5b50905061019b919061019f565b5090565b5b808211156101b85760008160009055506001016101a0565b5090565b60008083601f8401126101ce57600080fd5b8235905067ffffffffffffffff8111156101e757600080fd5b6020830191508360018202830111156101ff57600080fd5b9250929050565b6000806020838503121561021957600080fd5b600083013567ffffffffffffffff81111561023357600080fd5b61023f858286016101bc565b92509250509250929050565b6000610256826102a6565b61026081856102b1565b93506102708185602086016102c2565b61027981610356565b840191505092915050565b6000602082019050818103600083015261029e818461024b565b905092915050565b600081519050919050565b600082825260208201905092915050565b60005b838110156102e05780820151818401526020810190506102c5565b838111156102ef576000848401525b50505050565b6000600282049050600182168061030d57607f821691505b6020821081141561032157610320610327565b5b50919050565b7f4e487b7100000000000000000000000000000000000000000000000000000000600052602260045260246000fd5b6000601f19601f830116905091905056fea26469706673582212200bd4fdd5926e336ffebbc408cf930a5ba9bced7076580830c5d1b062497c13ea64736f6c63430008030033",
  "immutableReferences": {},
  "source": "pragma solidity ^0.8.3;\r\n\r\n\r\ncontract Storage {\r\n    string public data;\r\n\r\n    function setData(string calldata _data) external {\r\n        data = _data;\r\n    }    \r\n}",
  "sourcePath": "C:/Solidity/EIP1167/first-EIP1167/contracts/Storage.sol",
  "compiler": {
    "name": "solc",
    "version": "0.8.3+commit.8d00100c.Emscripten.clang"
  },
  "schemaVersion": "3.4.1",
  "updatedAt": "2021-05-28T14:23:49.219Z",
  "networkType": "ethereum",
  "devdoc": {
    "kind": "dev",
    "methods": {},
    "version": 1
  },
  "userdoc": {
    "kind": "user",
    "methods": {},
    "version": 1
  }
}