{
  "_format": "hh-sol-artifact-1",
  "contractName": "KiichiInitialOffering",
  "sourceName": "contracts/KiichiInitialOffering.sol",
  "abi": [
    {
      "inputs": [
        {
          "internalType": "contract IERC20",
          "name": "ktt",
          "type": "address"
        }
      ],
      "stateMutability": "nonpayable",
      "type": "constructor"
    },
    {
      "anonymous": false,
      "inputs": [
        {
          "indexed": true,
          "internalType": "address",
          "name": "account",
          "type": "address"
        },
        {
          "indexed": false,
          "internalType": "uint256",
          "name": "userShare",
          "type": "uint256"
        },
        {
          "indexed": false,
          "internalType": "uint256",
          "name": "kttAmount",
          "type": "uint256"
        }
      ],
      "name": "Claimed",
      "type": "event"
    },
    {
      "anonymous": false,
      "inputs": [
        {
          "indexed": true,
          "internalType": "address",
          "name": "previousOwner",
          "type": "address"
        },
        {
          "indexed": true,
          "internalType": "address",
          "name": "newOwner",
          "type": "address"
        }
      ],
      "name": "OwnershipTransferred",
      "type": "event"
    },
    {
      "anonymous": false,
      "inputs": [
        {
          "indexed": true,
          "internalType": "address",
          "name": "account",
          "type": "address"
        },
        {
          "indexed": false,
          "internalType": "uint256",
          "name": "amount",
          "type": "uint256"
        }
      ],
      "name": "Received",
      "type": "event"
    },
    {
      "inputs": [],
      "name": "END",
      "outputs": [
        {
          "internalType": "uint256",
          "name": "",
          "type": "uint256"
        }
      ],
      "stateMutability": "view",
      "type": "function"
    },
    {
      "inputs": [],
      "name": "KTT",
      "outputs": [
        {
          "internalType": "contract IERC20",
          "name": "",
          "type": "address"
        }
      ],
      "stateMutability": "view",
      "type": "function"
    },
    {
      "inputs": [],
      "name": "START",
      "outputs": [
        {
          "internalType": "uint256",
          "name": "",
          "type": "uint256"
        }
      ],
      "stateMutability": "view",
      "type": "function"
    },
    {
      "inputs": [],
      "name": "TOTAL_DISTRIBUTE_AMOUNT",
      "outputs": [
        {
          "internalType": "uint256",
          "name": "",
          "type": "uint256"
        }
      ],
      "stateMutability": "view",
      "type": "function"
    },
    {
      "inputs": [],
      "name": "claim",
      "outputs": [],
      "stateMutability": "nonpayable",
      "type": "function"
    },
    {
      "inputs": [],
      "name": "owner",
      "outputs": [
        {
          "internalType": "address",
          "name": "",
          "type": "address"
        }
      ],
      "stateMutability": "view",
      "type": "function"
    },
    {
      "inputs": [
        {
          "internalType": "address",
          "name": "",
          "type": "address"
        }
      ],
      "name": "provided",
      "outputs": [
        {
          "internalType": "uint256",
          "name": "",
          "type": "uint256"
        }
      ],
      "stateMutability": "view",
      "type": "function"
    },
    {
      "inputs": [],
      "name": "renounceOwnership",
      "outputs": [],
      "stateMutability": "nonpayable",
      "type": "function"
    },
    {
      "inputs": [],
      "name": "totalProvided",
      "outputs": [
        {
          "internalType": "uint256",
          "name": "",
          "type": "uint256"
        }
      ],
      "stateMutability": "view",
      "type": "function"
    },
    {
      "inputs": [
        {
          "internalType": "address",
          "name": "newOwner",
          "type": "address"
        }
      ],
      "name": "transferOwnership",
      "outputs": [],
      "stateMutability": "nonpayable",
      "type": "function"
    },
    {
      "inputs": [],
      "name": "withdrawKTT",
      "outputs": [],
      "stateMutability": "nonpayable",
      "type": "function"
    },
    {
      "inputs": [],
      "name": "withdrawProvidedETH",
      "outputs": [],
      "stateMutability": "nonpayable",
      "type": "function"
    },
    {
      "inputs": [],
      "name": "withdrawUnclaimedKTT",
      "outputs": [],
      "stateMutability": "nonpayable",
      "type": "function"
    },
    {
      "stateMutability": "payable",
      "type": "receive"
    }
  ],
  "bytecode": "0x60a060405260006001553480156200001657600080fd5b506040516200202a3803806200202a83398181016040528101906200003c919062000149565b60006200004e6200012a60201b60201c565b9050806000806101000a81548173ffffffffffffffffffffffffffffffffffffffff021916908373ffffffffffffffffffffffffffffffffffffffff1602179055508073ffffffffffffffffffffffffffffffffffffffff16600073ffffffffffffffffffffffffffffffffffffffff167f8be0079c531659141344cd1fd0a4f28419497f9722a3daafe3b4186f6b6457e060405160405180910390a3508073ffffffffffffffffffffffffffffffffffffffff1660808173ffffffffffffffffffffffffffffffffffffffff1660601b8152505050620001d7565b600033905090565b6000815190506200014381620001bd565b92915050565b6000602082840312156200015c57600080fd5b60006200016c8482850162000132565b91505092915050565b600062000182826200019d565b9050919050565b6000620001968262000175565b9050919050565b600073ffffffffffffffffffffffffffffffffffffffff82169050919050565b620001c88162000189565b8114620001d457600080fd5b50565b60805160601c611e116200021960003960008181610551015281816105fa015281816107f701528181610b6001528181610c090152610c920152611e116000f3fe6080604052600436106100c65760003560e01c80639ddb9ee11161007f578063ba9a061a11610059578063ba9a061a1461037d578063e43608d8146103a8578063efe7a504146103bf578063f2fde38b146103ea57610233565b80639ddb9ee1146102ea578063a226706114610327578063aa1cf2a21461035257610233565b806302e3cb0b146102385780632fc88c33146102635780634e71d92d1461027a578063715018a6146102915780637fc0f974146102a85780638da5cb5b146102bf57610233565b3661023357426360e83a401115610112576040517f08c379a00000000000000000000000000000000000000000000000000000000081526004016101099061180c565b60405180910390fd5b61a8c0620697806360e83a4061012891906118eb565b61013291906118eb565b421115610174576040517f08c379a000000000000000000000000000000000000000000000000000000000815260040161016b9061176c565b60405180910390fd5b346001600082825461018691906118eb565b9250508190555034600260003373ffffffffffffffffffffffffffffffffffffffff1673ffffffffffffffffffffffffffffffffffffffff16815260200190815260200160002060008282546101dc91906118eb565b925050819055503373ffffffffffffffffffffffffffffffffffffffff167f88a5966d370b9919b20f3e2c13ff65706f196a4e32cc2c12bf57088f8852587434604051610229919061184c565b60405180910390a2005b600080fd5b34801561024457600080fd5b5061024d610413565b60405161025a919061184c565b60405180910390f35b34801561026f57600080fd5b50610278610419565b005b34801561028657600080fd5b5061028f610640565b005b34801561029d57600080fd5b506102a661092e565b005b3480156102b457600080fd5b506102bd610a68565b005b3480156102cb57600080fd5b506102d4610c4f565b6040516102e1919061164b565b60405180910390f35b3480156102f657600080fd5b50610311600480360381019061030c919061136f565b610c78565b60405161031e919061184c565b60405180910390f35b34801561033357600080fd5b5061033c610c90565b604051610349919061168f565b60405180910390f35b34801561035e57600080fd5b50610367610cb4565b604051610374919061184c565b60405180910390f35b34801561038957600080fd5b50610392610cba565b60405161039f919061184c565b60405180910390f35b3480156103b457600080fd5b506103bd610cc2565b005b3480156103cb57600080fd5b506103d4610e3d565b6040516103e1919061184c565b60405180910390f35b3480156103f657600080fd5b50610411600480360381019061040c919061136f565b610e60565b005b60015481565b610421611009565b73ffffffffffffffffffffffffffffffffffffffff1661043f610c4f565b73ffffffffffffffffffffffffffffffffffffffff1614610495576040517f08c379a000000000000000000000000000000000000000000000000000000000815260040161048c9061178c565b60405180910390fd5b4261a8c0620697806360e83a406104ac91906118eb565b6104b691906118eb565b106104f6576040517f08c379a00000000000000000000000000000000000000000000000000000000081526004016104ed906117ac565b60405180910390fd5b68056bc75e2d631000006001541015610544576040517f08c379a000000000000000000000000000000000000000000000000000000000815260040161053b906116cc565b60405180910390fd5b61063e61054f610c4f565b7f000000000000000000000000000000000000000000000000000000000000000073ffffffffffffffffffffffffffffffffffffffff166370a08231306040518263ffffffff1660e01b81526004016105a8919061164b565b60206040518083038186803b1580156105c057600080fd5b505afa1580156105d4573d6000803e3d6000fd5b505050506040513d601f19601f820116820180604052508101906105f891906113c1565b7f000000000000000000000000000000000000000000000000000000000000000073ffffffffffffffffffffffffffffffffffffffff166110119092919063ffffffff16565b565b600033905061a8c0620697806360e83a4061065b91906118eb565b61066591906118eb565b42116106a6576040517f08c379a000000000000000000000000000000000000000000000000000000000815260040161069d906117cc565b60405180910390fd5b6000600260008373ffffffffffffffffffffffffffffffffffffffff1673ffffffffffffffffffffffffffffffffffffffff1681526020019081526020016000205411610728576040517f08c379a000000000000000000000000000000000000000000000000000000000815260040161071f9061172c565b60405180910390fd5b6000600260008373ffffffffffffffffffffffffffffffffffffffff1673ffffffffffffffffffffffffffffffffffffffff1681526020019081526020016000205490506000600260008473ffffffffffffffffffffffffffffffffffffffff1673ffffffffffffffffffffffffffffffffffffffff1681526020019081526020016000208190555068056bc75e2d63100000600154106108915760006107ee6001546107e084618ca061109790919063ffffffff16565b6110ad90919063ffffffff16565b905061083b83827f000000000000000000000000000000000000000000000000000000000000000073ffffffffffffffffffffffffffffffffffffffff166110119092919063ffffffff16565b8273ffffffffffffffffffffffffffffffffffffffff167f987d620f307ff6b94d58743cb7a7509f24071586a77759b77c2d4e29f75a2f9a8383604051610883929190611890565b60405180910390a25061092a565b8173ffffffffffffffffffffffffffffffffffffffff166108fc829081150290604051600060405180830381858888f193505050501580156108d7573d6000803e3d6000fd5b508173ffffffffffffffffffffffffffffffffffffffff167f987d620f307ff6b94d58743cb7a7509f24071586a77759b77c2d4e29f75a2f9a826000604051610921929190611867565b60405180910390a25b5050565b610936611009565b73ffffffffffffffffffffffffffffffffffffffff16610954610c4f565b73ffffffffffffffffffffffffffffffffffffffff16146109aa576040517f08c379a00000000000000000000000000000000000000000000000000000000081526004016109a19061178c565b60405180910390fd5b600073ffffffffffffffffffffffffffffffffffffffff1660008054906101000a900473ffffffffffffffffffffffffffffffffffffffff1673ffffffffffffffffffffffffffffffffffffffff167f8be0079c531659141344cd1fd0a4f28419497f9722a3daafe3b4186f6b6457e060405160405180910390a360008060006101000a81548173ffffffffffffffffffffffffffffffffffffffff021916908373ffffffffffffffffffffffffffffffffffffffff160217905550565b610a70611009565b73ffffffffffffffffffffffffffffffffffffffff16610a8e610c4f565b73ffffffffffffffffffffffffffffffffffffffff1614610ae4576040517f08c379a0000000000000000000000000000000000000000000000000000000008152600401610adb9061178c565b60405180910390fd5b4262278d0061a8c0620697806360e83a40610aff91906118eb565b610b0991906118eb565b610b1391906118eb565b10610b53576040517f08c379a0000000000000000000000000000000000000000000000000000000008152600401610b4a9061174c565b60405180910390fd5b610c4d610b5e610c4f565b7f000000000000000000000000000000000000000000000000000000000000000073ffffffffffffffffffffffffffffffffffffffff166370a08231306040518263ffffffff1660e01b8152600401610bb7919061164b565b60206040518083038186803b158015610bcf57600080fd5b505afa158015610be3573d6000803e3d6000fd5b505050506040513d601f19601f82011682018060405250810190610c0791906113c1565b7f000000000000000000000000000000000000000000000000000000000000000073ffffffffffffffffffffffffffffffffffffffff166110119092919063ffffffff16565b565b60008060009054906101000a900473ffffffffffffffffffffffffffffffffffffffff16905090565b60026020528060005260406000206000915090505481565b7f000000000000000000000000000000000000000000000000000000000000000081565b618ca081565b6360e83a4081565b610cca611009565b73ffffffffffffffffffffffffffffffffffffffff16610ce8610c4f565b73ffffffffffffffffffffffffffffffffffffffff1614610d3e576040517f08c379a0000000000000000000000000000000000000000000000000000000008152600401610d359061178c565b60405180910390fd5b4261a8c0620697806360e83a40610d5591906118eb565b610d5f91906118eb565b10610d9f576040517f08c379a0000000000000000000000000000000000000000000000000000000008152600401610d96906117ac565b60405180910390fd5b68056bc75e2d631000006001541015610ded576040517f08c379a0000000000000000000000000000000000000000000000000000000008152600401610de4906116cc565b60405180910390fd5b610df5610c4f565b73ffffffffffffffffffffffffffffffffffffffff166108fc479081150290604051600060405180830381858888f19350505050158015610e3a573d6000803e3d6000fd5b50565b61a8c0620697806360e83a40610e5391906118eb565b610e5d91906118eb565b81565b610e68611009565b73ffffffffffffffffffffffffffffffffffffffff16610e86610c4f565b73ffffffffffffffffffffffffffffffffffffffff1614610edc576040517f08c379a0000000000000000000000000000000000000000000000000000000008152600401610ed39061178c565b60405180910390fd5b600073ffffffffffffffffffffffffffffffffffffffff168173ffffffffffffffffffffffffffffffffffffffff161415610f4c576040517f08c379a0000000000000000000000000000000000000000000000000000000008152600401610f43906116ec565b60405180910390fd5b8073ffffffffffffffffffffffffffffffffffffffff1660008054906101000a900473ffffffffffffffffffffffffffffffffffffffff1673ffffffffffffffffffffffffffffffffffffffff167f8be0079c531659141344cd1fd0a4f28419497f9722a3daafe3b4186f6b6457e060405160405180910390a3806000806101000a81548173ffffffffffffffffffffffffffffffffffffffff021916908373ffffffffffffffffffffffffffffffffffffffff16021790555050565b600033905090565b6110928363a9059cbb60e01b8484604051602401611030929190611666565b604051602081830303815290604052907bffffffffffffffffffffffffffffffffffffffffffffffffffffffff19166020820180517bffffffffffffffffffffffffffffffffffffffffffffffffffffffff83818316178352505050506110c3565b505050565b600081836110a59190611972565b905092915050565b600081836110bb9190611941565b905092915050565b6000611125826040518060400160405280602081526020017f5361666545524332303a206c6f772d6c6576656c2063616c6c206661696c65648152508573ffffffffffffffffffffffffffffffffffffffff1661118a9092919063ffffffff16565b905060008151111561118557808060200190518101906111459190611398565b611184576040517f08c379a000000000000000000000000000000000000000000000000000000000815260040161117b9061182c565b60405180910390fd5b5b505050565b606061119984846000856111a2565b90509392505050565b6060824710156111e7576040517f08c379a00000000000000000000000000000000000000000000000000000000081526004016111de9061170c565b60405180910390fd5b6111f0856112b6565b61122f576040517f08c379a0000000000000000000000000000000000000000000000000000000008152600401611226906117ec565b60405180910390fd5b6000808673ffffffffffffffffffffffffffffffffffffffff1685876040516112589190611634565b60006040518083038185875af1925050503d8060008114611295576040519150601f19603f3d011682016040523d82523d6000602084013e61129a565b606091505b50915091506112aa8282866112c9565b92505050949350505050565b600080823b905060008111915050919050565b606083156112d957829050611329565b6000835111156112ec5782518084602001fd5b816040517f08c379a000000000000000000000000000000000000000000000000000000000815260040161132091906116aa565b60405180910390fd5b9392505050565b60008135905061133f81611d96565b92915050565b60008151905061135481611dad565b92915050565b60008151905061136981611dc4565b92915050565b60006020828403121561138157600080fd5b600061138f84828501611330565b91505092915050565b6000602082840312156113aa57600080fd5b60006113b884828501611345565b91505092915050565b6000602082840312156113d357600080fd5b60006113e18482850161135a565b91505092915050565b6113f3816119cc565b82525050565b6000611404826118b9565b61140e81856118cf565b935061141e818560208601611a4a565b80840191505092915050565b61143381611a14565b82525050565b61144281611a38565b82525050565b6000611453826118c4565b61145d81856118da565b935061146d818560208601611a4a565b61147681611adb565b840191505092915050565b600061148e6029836118da565b915061149982611aec565b604082019050919050565b60006114b16026836118da565b91506114bc82611b3b565b604082019050919050565b60006114d46026836118da565b91506114df82611b8a565b604082019050919050565b60006114f7601a836118da565b915061150282611bd9565b602082019050919050565b600061151a601a836118da565b915061152582611c02565b602082019050919050565b600061153d601f836118da565b915061154882611c2b565b602082019050919050565b60006115606020836118da565b915061156b82611c54565b602082019050919050565b6000611583601e836118da565b915061158e82611c7d565b602082019050919050565b60006115a6601d836118da565b91506115b182611ca6565b602082019050919050565b60006115c9601d836118da565b91506115d482611ccf565b602082019050919050565b60006115ec6029836118da565b91506115f782611cf8565b604082019050919050565b600061160f602a836118da565b915061161a82611d47565b604082019050919050565b61162e81611a0a565b82525050565b600061164082846113f9565b915081905092915050565b600060208201905061166060008301846113ea565b92915050565b600060408201905061167b60008301856113ea565b6116886020830184611625565b9392505050565b60006020820190506116a4600083018461142a565b92915050565b600060208201905081810360008301526116c48184611448565b905092915050565b600060208201905081810360008301526116e581611481565b9050919050565b60006020820190508181036000830152611705816114a4565b9050919050565b60006020820190508181036000830152611725816114c7565b9050919050565b60006020820190508181036000830152611745816114ea565b9050919050565b600060208201905081810360008301526117658161150d565b9050919050565b6000602082019050818103600083015261178581611530565b9050919050565b600060208201905081810360008301526117a581611553565b9050919050565b600060208201905081810360008301526117c581611576565b9050919050565b600060208201905081810360008301526117e581611599565b9050919050565b60006020820190508181036000830152611805816115bc565b9050919050565b60006020820190508181036000830152611825816115df565b9050919050565b6000602082019050818103600083015261184581611602565b9050919050565b60006020820190506118616000830184611625565b92915050565b600060408201905061187c6000830185611625565b6118896020830184611439565b9392505050565b60006040820190506118a56000830185611625565b6118b26020830184611625565b9392505050565b600081519050919050565b600081519050919050565b600081905092915050565b600082825260208201905092915050565b60006118f682611a0a565b915061190183611a0a565b9250827fffffffffffffffffffffffffffffffffffffffffffffffffffffffffffffffff0382111561193657611935611a7d565b5b828201905092915050565b600061194c82611a0a565b915061195783611a0a565b92508261196757611966611aac565b5b828204905092915050565b600061197d82611a0a565b915061198883611a0a565b9250817fffffffffffffffffffffffffffffffffffffffffffffffffffffffffffffffff04831182151516156119c1576119c0611a7d565b5b828202905092915050565b60006119d7826119ea565b9050919050565b60008115159050919050565b600073ffffffffffffffffffffffffffffffffffffffff82169050919050565b6000819050919050565b6000611a1f82611a26565b9050919050565b6000611a31826119ea565b9050919050565b6000611a4382611a0a565b9050919050565b60005b83811015611a68578082015181840152602081019050611a4d565b83811115611a77576000848401525b50505050565b7f4e487b7100000000000000000000000000000000000000000000000000000000600052601160045260246000fd5b7f4e487b7100000000000000000000000000000000000000000000000000000000600052601260045260246000fd5b6000601f19601f8301169050919050565b7f54686520726571756972656420616d6f756e7420686173206e6f74206265656e60008201527f2070726f76696465640000000000000000000000000000000000000000000000602082015250565b7f4f776e61626c653a206e6577206f776e657220697320746865207a65726f206160008201527f6464726573730000000000000000000000000000000000000000000000000000602082015250565b7f416464726573733a20696e73756666696369656e742062616c616e636520666f60008201527f722063616c6c0000000000000000000000000000000000000000000000000000602082015250565b7f796f752068617665206e6f20726967687420746f20636c61696d000000000000600082015250565b7f5769746864726177616c20756e617661696c61626c6520796574000000000000600082015250565b7f54686973206f66666572696e672068617320616c726561647920656e64656400600082015250565b7f4f776e61626c653a2063616c6c6572206973206e6f7420746865206f776e6572600082015250565b7f546865206f66666572696e67206d75737420626520636f6d706c657465640000600082015250565b7f54686520696e697469616c206f66666572696e672072756e73206e6f77000000600082015250565b7f416464726573733a2063616c6c20746f206e6f6e2d636f6e7472616374000000600082015250565b7f5468697320696e697469616c206f66666572696e6720686173206e6f7420737460008201527f6172746564207965740000000000000000000000000000000000000000000000602082015250565b7f5361666545524332303a204552433230206f7065726174696f6e20646964206e60008201527f6f74207375636365656400000000000000000000000000000000000000000000602082015250565b611d9f816119cc565b8114611daa57600080fd5b50565b611db6816119de565b8114611dc157600080fd5b50565b611dcd81611a0a565b8114611dd857600080fd5b5056fea2646970667358221220c2b4fa51def2b60f66f76e1f2c77a2bf8428739741e836754c6d54e1ded07dcb64736f6c63430008030033",
  "linkReferences": {},
  "deployedLinkReferences": {}
}